:1000000014C02CC02BC02AC029C028C027C026C0BD
:1000100025C024C003C10BC115C116C11AC11EC120
:1000200023C12CC12EC130C133C111241FBECFE961
:10003000CDBF10E0A0E6B0E0E4ECF2E002C0059035
:100040000D92A037B107D9F720E0A0E7B0E001C0DA
:100050001D92A737B207E1F7A0D032C1D1CFE82F68
:10006000F0E0EE0FFF1FED59FF4F808187BB8181CC
:1000700088BB089580917500909176009C012F5F58
:100080003F4F3093760020937500E9DF8091750033
:1000900090917600069721F41092760010927500E8
:1000A000089580917500DBDF809175009091760056
:1000B0002091600030916100820F931F9093760031
:1000C000809375008630910549F48FEF9FEF9093F0
:1000D00061008093600084E090E008C0019651F4D4
:1000E00081E090E0909361008093600090937600AF
:1000F00080937500089580917500B1DF809175003F
:10010000909176002091600030916100820F931FE2
:100110008630910529F410927600109275000895AA
:100120008F3F2FEF920711F485E090E090937600D7
:100130008093750008954091700050917100609116
:100140007200709173004F5F5F4F6F4F7F4FA0E061
:10015000B0E084179507A607B70748F040937000F2
:100160005093710060937200709373000FC01092EF
:10017000700010927100109272001092730081E072
:1001800090917400911180E08093740080917400CC
:10019000811101C06FCF18BA089587E087BBC49A58
:1001A00080E090E077D0809362008D3038F081E07D
:1001B0008093620061E080E090E074D0C1E0D0E024
:1001C0000FEF1FEFB49B05C0809162008823D1F32D
:1001D0001CC087EA91E60197F1F700C00000B499CE
:1001E000F3CF18BA809162008F5F8C3019F0809342
:1001F000620003C01092620018BA6091620080E051
:1002000090E050D0B49BFECFDFCF90E0FC0131975F
:10021000EB30F105B8F6E65FFF4F099442DF9FEF40
:1002200020E782E0915020408040E1F708C039DFAC
:100230009FE728E381E0915020408040E1F700C033
:100240000000C0CF2EDF15C0109361000093600046
:1002500009C010936100009360000AC0D093610050
:10026000C093600048DFE4CFD0936100C09360008A
:1002700042DF8FE493EC0197F1F7E1CF88EA91E652
:1002800005C084ED90E302C088E893E154DF9ACF83
:10029000F1DE98CFE199FECF1FBA8EBBE09A992785
:1002A0008DB30895262FE199FECF1CBA1FBA8EBBDD
:1002B0002DBB0FB6F894E29AE19A0FBE019608950D
:0402C000F894FFCFE0
:1002C40001000103010302060206040501050400FE
:00000001FF
